:020000040800F2
:1000000098040020C1010008E7100008B70D00089F
:10001000E510000809030008211300080000000093
:10002000000000000000000000000000EB100008CD
:100030000B03000800000000E9100008ED100008A4
:10004000DB010008DB010008DB010008DB01000820
:10005000DB010008DB010008DB010008DB01000810
:10006000DB010008DB010008DB010008DB01000800
:10007000DB010008DB010008DB010008DB010008F0
:10008000DB010008DB010008DB010008DB010008E0
:10009000DB010008DB010008DB010008DB010008D0
:1000A000DB010008DB010008DB010008DB010008C0
:1000B000DB010008DB010008DB010008DB010008B0
:1000C000DB010008DB010008DB010008DB010008A0
:1000D000DB010008DB010008DB010008DB01000890
:1000E000DB010008DB010008DB010008DB01000880
:1000F000DB010008DB010008DB010008DB01000870
:10010000DB010008DB010008DB010008DB0100085F
:10011000DB010008DB010008DB010008DB0100084F
:10012000DB010008DB010008DB010008DB0100083F
:10013000DB010008DB010008DB010008DB0100082F
:10014000DB010008DB010008DB010008DB0100081F
:10015000DB010008DB010008DB010008DB0100080F
:10016000DB010008DB010008DB010008DB010008FF
:10017000DB010008DB010008DB01000800000000D3
:10018000DB010008DB010008DB010008DB010008DF
:10019000DB010008DB010008DB010008DB010008CF
:1001A000DB010008DB010008DB010008DFF80CD0F0
:1001B00000F098F800480047ED140008980400206B
:1001C0000648804706480047FEE7FEE7FEE7FEE7F1
:1001D000FEE7FEE7FEE7FEE7FEE7FEE7791100082F
:1001E000AD0100082DE9F05F0546002092469B46D0
:1001F00088460646814640241BE02846414647463D
:10020000224600F05EF853465A46C01A914110D378
:1002100011461846224600F045F82D1A67EB0108F2
:100220004F4622460120002100F03CF817EB000960
:100230004E41201EA4F10104DFDC484631462A4627
:100240004346BDE8F09FD2B201E000F8012B491E01
:10025000FBD270470022F6E710B513460A46044663
:100260001946FFF7F0FF204610BD421C10F8011B95
:100270000029FBD1801A704730B50B46014600209B
:100280002022012409E021FA02F59D4205D303FA58
:1002900002F5491B04FA02F52844151EA2F10102D9
:1002A000F1DC30BD202A04DB203A00FA02F1002004
:1002B00070479140C2F1200320FA03F319439040A4
:1002C0007047202A04DB203A21FA02F0002170470F
:1002D00021FA02F3D040C2F12002914008431946AE
:1002E00070470000064C074D06E0E06840F001034F
:1002F00094E8070098471034AC42F6D3FFF75AFF52
:10030000FC1500081C160008FEE7704710B5040035
:1003100002D0607910B106E0012010BD00202071EC
:10032000204600F005F801206071002010BD00009B
:1003300008B500680649884208D10648016841F4BA
:1003400080510160006800F48050009008BD0000FA
:1003500000300240303802402DE9F84F00224FF0C3
:10036000010803254FF00F0E0B6808FA02F4234032
:10037000A3426ED14E68012E05D0022E03D0112E5D
:1003800001D0122E12D186684FEA420C05FA0CF702
:10039000BE43CF6807FA0CF7374387604668A64329
:1003A0000C79C4F30014944034434460C668570089
:1003B00005FA07FC8C6826EA0C06BC403443C4608E
:1003C0004C68022C01D0122C13D1D40800EB840409
:1003D000A346D4F8209054074FEAD46A0EFA0AF6DE
:1003E00029EA06090E6906FA0AF646EA0906CBF872
:1003F000206004680E7924EA0C0406F00306BE406F
:10040000264306604C68E4006FD53B4C266846F4F2
:1004100080462660246822F0030604F48044009499
:10042000364C3444A446D4F808489607360F0EFAE2
:1004300006F7BC43324FB84201D100272EE0314FBE
:10044000B84201D1012729E02F4FB84202D102273B
:1004500024E04AE02D4FB84201D103271EE02C4F83
:10046000B84201D1042719E02A4FB84201D105272B
:1004700014E0294FB84201D106270FE0274FB842B8
:1004800001D107270AE0264FB84201D1082705E02D
:10049000244FB84201D1092700E00A27B74027437B
:1004A000CCF80878204E34684F689C43FF0300D591
:1004B0001C4334601C4E361D34684F689C43BF0398
:1004C00000D51C433460184E083634684F689C438E
:1004D000FF0200D51C433460134E0C3634684F685D
:1004E0009C43BF0200D51C433460521C102AFFF409
:1004F0003BAFBDE8F88F00004438024000300140B7
:10050000000002400004024000080240000C0240CB
:10051000001002400014024000180240001C02407B
:100520000020024000240240003C014000690840D5
:1005300000D0012070470AB1816170470904FBE7D0
:100540000148806870470000080000200248816868
:100550000278114481607047080000200B4810B5F4
:10056000016841F400710160016841F4806101603B
:10057000016841F480710160032000F063F80020FD
:1005800000F006F800F024F8002010BD003C024006
:1005900070B50D4D04464FF47A712878B1FBF0F038
:1005A0000A490968B1FBF0F000F0F6FA48B9102CDE
:1005B00007D200222146501E00F024F800206C6073
:1005C00070BD012070BD0000080000201400002054
:1005D0000B4882B0016841F480410160006800F47A
:1005E000804000900648001F016841F08051016082
:1005F000006800F080500090072002B000F022B8A0
:1006000044380240F0B40E4B1B680C46C3F302237F
:10061000C3F10705042D00D90425191D072901D2AE
:10062000002300E0DB1E012606FA05F1491E2140E9
:1006300099409E40761E16403143F0BC00F086BEC5
:100640000CED00E0064900F0070208684FF6FF03D2
:10065000184040EA0220034A104308607047000037
:100660000CED00E00000FA052DE9F0470E4605000C
:1006700065D0DFF81481D8F80000F7B200F00F0061
:10068000B04207D288F80070D8F8000000F00F00E0
:10069000B04254D128683D4C810712D5400703D59C
:1006A000206840F4E05020602878000703D52068D7
:1006B00040F4604020602068A96820F0F000084302
:1006C00020602878C0072DD0304968680839012893
:1006D00012D0022813D0032811D0096889070029F5
:1006E0002DDA216821F0030101432160FFF728FF83
:1006F000814641F2883A0EE009688903EFE709680C
:100700008901ECE7FFF71CFFA0EB0901514502D975
:100710000320BDE8F0872068696800F00C00B0EBAA
:10072000810FEFD1D8F80010404601F00F01B1421F
:1007300007D90770006800F00F00B04201D0012017
:10074000E7E72878400705D52068E96820F4E050FD
:10075000084320602878000706D52068296920F41E
:10076000604040EAC100206000F038F82168084A83
:10077000C1F30311515CC84006490860064800688F
:10078000FFF706FF0020C4E7003C024008380240A3
:10079000E4150008140000200C000020044805495E
:1007A00000680968044AC1F38221515CC84070475F
:1007B0001400002008380240F415000804480549D8
:1007C00000680968044AC1F34231515CC84070476F
:1007D0001400002008380240F4150008154810B530
:1007E000006810F00C02144813D04110042A0FD0F6
:1007F000082A0ED10F4C241F2268236802F03F0202
:100800005B0207D52068C0F38810A0FB010106E059
:10081000084610BD2168C1F38811A1FB0001002327
:10082000FFF7E0FC2168C1F30141491C4900B0FB1E
:10083000F1F010BD083802400024F4002DE9F84F13
:1008400004006ED02078DFF83C93C007A9F10405BE
:100850004AD009F104000168C1F38101012908D0DF
:100860000068C0F3810002280AD1D9F800004002D4
:1008700006D52868800337D560680028E1D033E0CA
:100880006068B0F5803F10D0B0F5A02F286810D078
:1008900020F480302860286820F480202860606878
:1008A000A8B1FFF74DFE06460DE0286840F4803001
:1008B000F4E740F480202860F7E700BFFFF740FE30
:1008C000801B642873D828688003F7D50CE0FFF7F5
:1008D00037FE064605E000BFFFF732FE801B6428A6
:1008E000F0D828688003F7D42078DFF89C8280074E
:1008F0004FF0000A3ED5A348001D016811F00C0F0F
:1009000008D00068C0F3810002280BD1D9F800009C
:10091000400207D42868800716D5E068012800D176
:1009200012E02BE1E068B8B10120C8F80000FFF741
:1009300007FE064605E000BFFFF702FE801B022807
:10094000C0D828688007F7D52868216920F0F8000A
:1009500040EAC10028600DE0C8F800A0FFF7F0FDF4
:10096000064604E0FFF7ECFD801B02281FD828682C
:100970008007F7D42078000722D5824E834861692A
:10098000703671B101210160FFF7DAFD074604E01E
:10099000FFF7D6FDC01B022809D830688007F7D5BD
:1009A0000EE0C0F800A0FFF7CBFD074605E082E0AF
:1009B000FFF7C6FDC01B02287DD830688007F7D43A
:1009C0002078400768D5DFF8BCB100270BF13C0B5D
:1009D000DBF80000C0000BD4DBF8001041F08051C0
:1009E000CBF80010DBF80000012700F080500090E9
:1009F000674E3068C00510D4306840F480703060B5
:100A0000FFF79EFD009005E0FFF79AFD0099401A60
:100A1000022850D83068C005F6D55A4EA0686C360A
:100A200001280FD00528306810D020F00100306078
:100A3000306820F004003060A068B8B1FFF780FD96
:100A400000900FE0306840F00100F4E740F004004F
:100A50003060F7E7FFF774FD0099411A41F28830E2
:100A6000814266D830688007F4D50EE0FFF768FD54
:100A7000009007E0FFF764FD0099411A41F28830C9
:100A8000814256D830688007F4D42FB1DBF80010CB
:100A900021F08051CBF80010A069C8B33949091D75
:100AA0000968C1F3810102294AD00228504607D0C3
:100AB000C8F8600000E03CE0FFF742FD04463BE080
:100AC0004746C8F86000FFF73BFD064605E000BF5B
:100AD000FFF736FD801B02282BD828688001F7D449
:100AE000D4E907010843A16A2A4A490802EB0141F7
:100AF000626A41EA8211084394F82C1040EA0161CD
:100B0000C9F8001001203866FFF71AFD044606E018
:100B100036E000BFFFF714FD001B022809D8286843
:100B20008001F7D52CE000BFFFF70AFD001B02286B
:100B300002D90320BDE8F88F28688001F4D41FE0B3
:100B40000128F7D0D9F80000E26900F48001914251
:100B500014D1226A00F03F0191420FD147F6C071D3
:100B6000626A0140914209D1A26A00F44031914287
:100B700004D1E16A00F07060884201D00120D9E719
:100B80000020D7E70438024000004742800E474269
:100B9000007000400000FFFF10B5401EB0F1807FE4
:100BA00001D3012010BD4FF0E02460610F216017D8
:100BB00000F0CCFB0020A06107202061002010BDC8
:100BC00070B5040004D094F83900002510B106E097
:100BD000012070BD84F83850204600F023F824200E
:100BE00084F839002068C16821F40051C1602046B2
:100BF00000F0D0FA2068016921F490410161206879
:100C0000416921F02A0141612068C16841F4005125
:100C1000C160E563202084F8390084F83A000020A0
:100C200070BD0000F0B587B0044614216846FFF798
:100C300011FB2C4B216800222B48022403259942EA
:100C40002CD1294910310A6842F480120A600968DF
:100C500001F480110591016841F00401016001680F
:100C600001F004010591016841F00801016000688C
:100C7000012600F00800059098148DE8510008271F
:100C8000CDE9035769461948FFF766FB04208DE854
:100C90005100CDE90357694615481EE0154B9942AE
:100CA0001DD1114914310B6843F010030B60096822
:100CB00001F010010591016841F001010160006837
:100CC000029200F0010005904FF4C060CDE90004ED
:100CD0000720CDE9035069460748FFF73DFB07B001
:100CE000F0BD0000005000403038024000080240D3
:100CF000000C024000100140000002402DE9F843C2
:100D0000044690F839001F4616460D46202850D15B
:100D1000B5B1AEB194F8380001284AD0012084F86A
:100D200038004FF00008C4F83C80212084F83900D6
:100D3000FFF706FCA6848146E68484F8388026E026
:100D40000120BDE8F883E08C401EE084A0684B469B
:100D5000B0F5805F4FF000024FF080012046009711
:100D600003D000F0ABFAE8B90DE000F0A7FAC8B97B
:100D700028882168C0F308004860206908B16D1C0C
:100D800005E0AD1C03E0216815F8010B4860E08C1C
:100D90000028D8D14B46002240212046009700F081
:100DA0008DFA08B10320CCE7202084F83900002018
:100DB000C7E70220C5E7FEE72DE9F04F87B0142111
:100DC0006846FFF747FABE480024016841F0040175
:100DD0000160016801F004010591016841F0200102
:100DE0000160016801F020010591016841F0800176
:100DF0000160016801F080010591016841F0010185
:100E00000160016801F001010591016841F00201F2
:100E10000160016801F002010591016841F04001A3
:100E20000160016801F040010591016841F0100185
:100E30000160016801F010010591016841F00801AD
:100E400001600068002200F00800059016219D480E
:100E5000FFF771FB002280219B48FFF76CFB00220B
:100E60004FF440519948FFF766FB00224FF4C04110
:100E70009748FFF760FB4FF63F000225CDE90005DC
:100E80000320CDE90240934F0C266946049638466C
:100E9000FFF762FA4FF460700090CDE9015405202D
:100EA000CDE9034069463846FFF756FA68020090DC
:100EB000CDE901544FF00E08CDE9034869463846A4
:100EC000FFF74AFA03200127CDE90240CDE900757A
:100ED000694604967B48FFF73FFA16200090CDE95B
:100EE0000174694677480394FFF736FADFF8E89112
:100EF00048F20700CDE90009694602947248FFF7FD
:100F00002BFA41F658000090CDE90154CDE9034891
:100F100069466D48FFF720FA80200090CDE9017402
:100F2000694669480394FFF717FA2020CDE90009C4
:100F3000694602946348FFF70FFA03200090CDE959
:100F400001544FF0090ACDE9034A69466348FFF7A7
:100F500003FA4FF00409CDE9009469465F48029412
:100F6000FFF7FAF948F23310CDE900050320CDE987
:100F70000240694604965648FFF7EEF94FF6837033
:100F8000CDE900050320CDE90240694604965448A6
:100F9000FFF7E2F94FF470600090CDE90154CDE91C
:100FA000034869464D48FFF7D7F94FF45040009089
:100FB000CDE90154CDE9034669464848FFF7CCF92D
:100FC0002803CDE90004694644480294FFF7C4F9B8
:100FD0004CF20370CDE900050320CDE902406946DB
:100FE00004963A48FFF7B8F9A802CDE9000469462B
:100FF00036480294FFF7B0F9B0020090CDE90174D1
:10100000694632480394FFF7A7F94FF40C6000904B
:10101000CDE90154CDE9034869462D48FFF79CF915
:101020004FF498600090CDE90154CDE9034869463A
:101030002448FFF791F928024FF0120BCDE9000B7D
:10104000CDE902746946CDF810901E48FFF784F987
:10105000E801CDE9000BCDE902746946CDF81090A6
:101060001948FFF779F948200090CDE90154CDE9FE
:10107000034869461548FFF76FF94FF4A0500090F8
:10108000CDE90154CDE9034A69461148FFF764F9F7
:10109000F0020090CDE9017469460D480394FFF712
:1010A0005BF96020CDE900050320CDE902406946E7
:1010B00004960A48FFF750F907B0BDE8F08F00002A
:1010C000303802400008024000000240000C02409C
:1010D00000180240001402400000121000040240F8
:1010E00000100240FEE7704770477047FFF72EBAC6
:1010F00030B593B030216846FFF7ACF814210CA846
:10110000FFF7A8F81A480025016841F080510160F6
:10111000006800F0805011901648016821F44041A9
:1011200041F4804101600068022400F440401190C5
:101130000120039010200490009406940820CDE92B
:1011400007503C20CDE9090407200B906846FFF7C3
:1011500075FB0CA90F2081E83100E0020F904FF4DD
:10116000A050109001210CA8FFF77EFA13B030BDFB
:1011700040380240007000400548016841F47001A9
:10118000016003494FF0006080390860704700003B
:1011900088ED00E02DE9F041044600680169E2684D
:1011A00021F44051114301612169A068E2690843BB
:1011B0006169114308432168CA6849F20C639A4384
:1011C0000243CA6020684169A26921F44071114359
:1011D0004161E069192764253226B0F5004F354A90
:1011E000354920684FF0000806D0884201D090426F
:1011F00036D1FFF7E3FA35E0884201D0904202D1C0
:10120000FFF7DCFA01E0FFF7C9FA61684A18A0FBB2
:10121000070148EB0803FEF7E5FF0146B0FBF5F0D8
:101220000201B1FBF5F06FF01803584301EB8000A9
:1012300006EBC000B0FBF5F000F0F80002EB400256
:10124000B1FBF5F0584301EB800006EBC000B0FBAA
:10125000F5F000F00700216810448860BDE8F081D7
:10126000FFF79CFA61688B0F8A00A0FB0701FEF76D
:10127000B9FF0146B0FBF5F06FF01802504301EBE7
:10128000800006EB0010B0FBF5F000F0F002B1FBBF
:10129000F5F002EB0012B1FBF5F06FF018035843C4
:1012A00001EB800006EB0010B0FBF5F000F00F0042
:1012B000D1E7000000140140001001402DE9F04189
:1012C000984617460E460446069D1DE0681C1BD036
:1012D0002DB1FFF735F9A0EB0800A84214D920681A
:1012E000C16821F4D071C1602068416921F0010119
:1012F0004161202084F8390084F83A00002084F805
:1013000038000320BDE8F0812068006836EA00005C
:1013100004D00020B842D9D00020F3E70120F9E73B
:10132000FEE700000FB4084B10B504A902AA039809
:1013300000F02CF8044602A9002000F0D1F8204665
:1013400010BC5DF814FB0000E11400080907090E49
:10135000002804DB00F1E02080F80014704700F062
:101360000F0000F1E02080F8141D704702E008C86B
:10137000121F08C1002AFAD170477047002001E00F
:1013800001C1121F002AFBD1704700002DE9FF4F59
:1013900089B09B460446002506E025280BD05A4616
:1013A0000B999047641C6D1C20780028F5D10DB076
:1013B0002846BDE8F08F0027B8460122474900E0E3
:1013C000074314F8013F203B02FA03F00842F7D12B
:1013D00020782E2819D114F8010F47F004072A2885
:1013E0000ED06FF02F022078A0F1300109290CD81F
:1013F00008EB880102EB410100EB0108641CF2E7F5
:101400000A98641C50F8048B0A9020780028CED0EB
:10141000642808D0692806D075281ED05A460B9932
:1014200090476D1C58E00A994FF00A0901C90A91CA
:10143000002802DA40422D2102E0390504D52B2193
:101440008DF82010012103E0F90704D02021F7E7EF
:101450008A4608AE0DE00021FAE70A994FF00A0922
:1014600001C90A91F7E74946FEF706FF303106F851
:10147000011D0028F7D1ADEB060000F12009780727
:1014800001D44FF00108C84502DDA8EB090000E0D7
:1014900000208046002706E008A85A46C05D0B9948
:1014A00090476D1C7F1C5745F6DB04E030205A4600
:1014B0000B9990476D1CB8F10001A8F10108F5DC0B
:1014C00005E016F8010B5A460B9990476D1CB9F1CF
:1014D0000001A9F10109F4DC641C65E70928010099
:1014E0000A68531C0B6010707047000094B0FFF73F
:1014F00035F8FFF7FDFDFFF75FFC2C492A4808602F
:101500000846FEF703FF2B4829494FF4E135002434
:101510000160C0E901540C26C460C0E9044684613E
:10152000C461FFF74DFB2348234940300160C0E907
:101530000154C460C0E904468461C461FFF740FB04
:10154000661E22461DA16846FFF7ECFE6846FEF7C0
:101550008CFE82B21748334669464030FFF7CEFB17
:10156000641C052CEDDB1D4D01212846FEF7DEFF36
:10157000024618A16846FFF7D5FE6846FEF775FEDD
:1015800082B20C48334669464030FFF7B7FB144C33
:1015900001212846FEF7CAFF0028F9D1206880F310
:1015A000088860688047F3E70030024000000020B0
:1015B0000050004018000020001001403D3D3D3D1E
:1015C0003D3D3D3D3D3D3D3D3D3D3D3D3D3D3D3D4B
:1015D0003D3D3D2025640D0A000000000000024052
:1015E0000080000800000000000000000102030469
:1015F0000607080900000000010203041C16000889
:1016000000000020180000006C13000834160008C9
:1016100018000020800400007C1300080000000077
:1016200000000000010000001000000000000000A9
:041630000024F4009E
:04000005080001AD41
:00000001FF
