:020000040800F2
:100000006006002031020008390200083B020008A7
:100010003D0200083F020008410200080000000005
:100020000000000000000000000000004302000883
:1000300045020008000000004702000849020008CD
:100040004B0200084B0200084B0200084B0200085C
:100050004B0200084B0200084B0200084B0200084C
:100060004B0200084B0200084B0200084B0200083C
:100070004B0200084B0200084B0200084B0200082C
:100080004B0200084B0200084B0200084B0200081C
:100090004B0200084B0200084B0200084B0200080C
:1000A0004B0200084B0200084B0200084B020008FC
:1000B0004B0200084B0200084B0200084B020008EC
:1000C0004B0200084B0200084B0200084B020008DC
:1000D0004B0200084B0200084B0200084B020008CC
:1000E0004B0200084B0200084B0200084B020008BC
:1000F0004B0200084B0200084B0200084B020008AC
:100100004B0200084B0200084B0200084B0200089B
:100110004B0200084B0200084B0200084B0200088B
:100120004B0200084B0200084B0200084B0200087B
:100130004B0200084B0200084B0200084B0200086B
:100140004B0200084B0200084B0200084B0200085B
:100150004B0200084B0200084B0200084B0200084B
:100160004B0200084B0200084B0200084B0200083B
:100170004B0200084B0200084B0200080000000080
:100180004B0200084B0200084B0200084B0200081B
:100190004B0200084B0200084B0200084B0200080B
:1001A0004B0200084B0200084B02000800F002F866
:1001B00000F02EF80AA090E8000C82448344AAF1D3
:1001C0000107DA4501D100F023F8AFF2090EBAE8D1
:1001D0000F0013F0010F18BFFB1A43F0010318477B
:1001E0003C0400004C0400000023002400250026ED
:1001F000103A28BF78C1FBD8520728BF30C148BF8A
:100200000B6070471FB500F0FBF91FBD10B510BDA6
:1002100000F031F81146FFF7F5FF00F0E9F900F0C2
:100220004FF803B4FFF7F2FF03BC00F057F80000EB
:100230000948804709480047FEE7FEE7FEE7FEE77A
:10024000FEE7FEE7FEE7FEE7FEE7FEE704480549B6
:10025000054A064B704700008D050008AD010008F7
:100260006000002060060020600200206002002084
:10027000704770477047754600F02CF8AE46050091
:100280006946534620F00700854618B020B5FFF7B1
:10029000DDFFBDE820404FF000064FF000074FF0B3
:1002A00000084FF0000B21F00701AC46ACE8C00994
:1002B000ACE8C009ACE8C009ACE8C0098D4670479D
:1002C00010B50446AFF300802046BDE81040FFF7AC
:1002D000A8BF000000487047000000200149182016
:1002E000ABBEFEE72600020070470000F8B50246EC
:1002F0000B460025002400200021E6E0012606FA36
:1003000001F51E6806EA0504AC4273D15E68022E50
:1003100002D05E68122E13D1CF0802F1200656F8E3
:1003200027004E07F70E0F26BE40B0434F07FF0EC3
:100330001E69BE403043CF0802F1200646F8270070
:1003400010684F000326BE40B0431E7906F0030636
:100350004F00BE40304310605E68012E08D05E68DA
:10036000022E05D05E68112E02D05E68122E13D1C7
:1003700090684F000326BE40B0434F00DE68BE4089
:1003800030439060506801268E40B0431E79C6F31A
:1003900000168E4030435060D0684F000326BE40A8
:1003A000B0434F009E68BE403043D0605E6806F0A8
:1003B0008056B6F1805FA8D100BF00260096454E5A
:1003C000366846F48046434F3E603E46366806F443
:1003D0008046009600BF00BF3F4E8F0856F82700AA
:1003E0008E07370F0F26BE40B0433C4EB24202D1BB
:1003F00000262EE068E03A4EB24201D1012628E004
:10040000384EB24201D1022623E0374EB24201D12A
:1004100003261EE0354EB24201D1042619E0344EC7
:10042000B24201D1052614E0324EB24201D1062675
:100430000FE0314EB24201D107260AE02F4EB24200
:1004400001D1082605E02E4EB24201D1092600E076
:100450000A268F073F0FBE4030431F4E8F0846F8D5
:100460002700284E3068A0435E6806F48036B6F553
:10047000803F00D12043234E3060361D3068A043BA
:100480005E6806F40036B6F5003F00D120431D4EED
:10049000361D3060361D3068A0435E6806F4801655
:1004A000B6F5801F00D12043164E08363060361D49
:1004B0003068A0435E6806F40016B6F5001F00D150
:1004C0002043104E0C363060491C1029FFF416AF43
:1004D000F8BD0000443802400838014000000240E6
:1004E0000004024000080240000C024000100240DC
:1004F0000014024000180240001C0240002002408C
:1005000000240240003C01400AB1816101E00B047B
:100510008361704700B587B000BF002001900E488E
:10052000006840F040000C4908600846006800F090
:100530004000019000BF00BF4FF4C0400290012076
:100540000390022004900020059002A90348FFF7C1
:10055000CDFE002007B000BD303802400018024038
:1005600070B504460025022C0AD2074A02EBC402E9
:100570009188054A52F834000122FFF7C5FF01E0D7
:100580004FF0FF35284670BD0C060008144800687F
:1005900040F47000124908601248006840F0010001
:1005A0001049086000200F49083108600D480068B4
:1005B0000D4908400B4908600C48091D0860081FD8
:1005C000006820F48020091F0860002005490C31D4
:1005D00008604FF0006002498039086070470000F1
:1005E00088ED00E000380240FFFFF6FE10300024E6
:1005F00010B5FFF78FFF0020FFF7B2FF002010BDFE
:100600004FF04070E1EE100A704700000018024001
:100610000020000000180240004000002C060008E6
:0C0620000000002060060000E801000857
:0400000508000231BC
:00000001FF
