:020000040800F2
:1000000098040020C10100087F100008B90C000806
:100010007D100008CD020008551200080000000005
:100020000000000000000000000000008310000835
:10003000CF020008000000008110000885100008B1
:10004000DB010008DB010008DB010008DB01000820
:10005000DB010008DB010008DB010008DB01000810
:10006000DB010008DB010008DB010008DB01000800
:10007000DB010008DB010008DB010008DB010008F0
:10008000DB010008DB010008DB010008DB010008E0
:10009000DB010008DB010008DB010008DB010008D0
:1000A000DB010008DB010008DB010008DB010008C0
:1000B000DB010008DB010008DB010008DB010008B0
:1000C000DB010008DB010008DB010008DB010008A0
:1000D000DB010008DB010008DB010008DB01000890
:1000E000DB010008DB010008DB010008DB01000880
:1000F000DB010008DB010008DB010008DB01000870
:10010000DB010008DB010008DB010008DB0100085F
:10011000DB010008DB010008DB010008DB0100084F
:10012000DB010008DB010008DB010008DB0100083F
:10013000DB010008DB010008DB010008DB0100082F
:10014000DB010008DB010008DB010008DB0100081F
:10015000DB010008DB010008DB010008DB0100080F
:10016000DB010008DB010008DB010008DB010008FF
:10017000DB010008DB010008DB01000800000000D3
:10018000DB010008DB010008DB010008DB010008DF
:10019000DB010008DB010008DB010008DB010008CF
:1001A000DB010008DB010008DB010008DFF80CD0F0
:1001B00000F07AF8004800479512000898040020E3
:1001C0000648804706480047FEE7FEE7FEE7FEE7F1
:1001D000FEE7FEE7FEE7FEE7FEE7FEE71111000897
:1001E000AD0100082DE9F05F0546002092469B46D0
:1001F00088460646814640241BE02846414647463D
:10020000224600F041F853465A46C01A914110D395
:1002100011461846224600F028F82D1A67EB01080F
:100220004F4622460120002100F01FF817EB00097D
:100230004E41201EA4F10104DFDC484631462A4627
:100240004346BDE8F09FD2B201E000F8012B491E01
:10025000FBD270470022F6E710B513460A46044663
:100260001946FFF7F0FF204610BD202A04DB203A94
:1002700000FA02F1002070479140C2F1200320FAF9
:1002800003F3194390407047202A04DB203A21FAF7
:1002900002F00021704721FA02F3D040C2F120029F
:1002A0009140084319467047064C074D06E0E06848
:1002B00040F0010394E8070098471034AC42F6D3AD
:1002C000FFF778FFC8120008E8120008FEE7704741
:1002D000704710B5040002D0607910B106E001202B
:1002E00010BD00202071204600F004F8012060714C
:1002F000002010BD08B500680649884208D10648AC
:10030000016841F480510160006800F48050009061
:1003100008BD000000300240303802402DE9F84F9F
:1003200000224FF0010803254FF00F0E0B6808FA6A
:1003300002F42340A3426ED14E68012E05D0022E56
:1003400003D0112E01D0122E12D186684FEA420C32
:1003500005FA0CF7BE43CF6807FA0CF737438760FE
:100360004668A6430C79C4F30014944034434460B7
:10037000C668570005FA07FC8C6826EA0C06BC40E4
:100380003443C4604C68022C01D0122C13D1D40821
:1003900000EB8404A346D4F8209054074FEAD46AB3
:1003A0000EFA0AF629EA06090E6906FA0AF646EA7C
:1003B0000906CBF8206004680E7924EA0C0406F0E4
:1003C0000306BE40264306604C68E4006FD53B4CF4
:1003D000266846F480462660246822F0030604F46A
:1003E00080440094364C3444A446D4F80848960718
:1003F000360F0EFA06F7BC43324FB84201D1002740
:100400002EE0314FB84201D1012729E02F4FB842E9
:1004100002D1022724E04AE02D4FB84201D1032740
:100420001EE02C4FB84201D1042719E02A4FB842F0
:1004300001D1052714E0294FB84201D106270FE06A
:10044000274FB84201D107270AE0264FB84201D111
:10045000082705E0244FB84201D1092700E00A2708
:10046000B7402743CCF80878204E34684F689C4347
:10047000FF0300D51C4334601C4E361D34684F68A2
:100480009C43BF0300D51C433460184E08363468C3
:100490004F689C43FF0200D51C433460134E0C365A
:1004A00034684F689C43BF0200D51C433460521C23
:1004B000102AFFF43BAFBDE8F88F0000443802403B
:1004C00000300140000002400004024000080240E9
:1004D000000C0240001002400014024000180240CC
:1004E000001C02400020024000240240003C014069
:1004F0000AB1816170470904FBE700000148806888
:10050000704700000800002002488168027811440A
:1005100081607047080000200B4810B5016841F465
:1005200000710160016841F480610160016841F47B
:1005300080710160032000F063F8002000F006F8ED
:1005400000F024F8002010BD003C024070B50D4DB5
:1005500004464FF47A712878B1FBF0F00A49096833
:10056000B1FBF0F000F0F6FA48B9102C07D20022E7
:100570002146501E00F024F800206C6070BD012060
:1005800070BD000008000020140000200B4882B05D
:10059000016841F480410160006800F480400090EF
:1005A0000648001F016841F080510160006800F0BA
:1005B00080500090072002B000F022B8443802407A
:1005C000F0B40E4B1B680C46C3F30223C3F10705BE
:1005D000042D00D90425191D072901D2002300E0AC
:1005E000DB1E012606FA05F1491E214099409E4076
:1005F000761E16403143F0BC00F02DBE0CED00E03D
:10060000064900F0070208684FF6FF03184040EA69
:100610000220034A10430860704700000CED00E020
:100620000000FA052DE9F0470E46050065D0DFF819
:100630001481D8F80000F7B200F00F00B04207D2E2
:1006400088F80070D8F8000000F00F00B04254D1D4
:1006500028683D4C810712D5400703D5206840F437
:10066000E05020602878000703D5206840F46040FF
:1006700020602068A96820F0F000084320602878F6
:10068000C0072DD0304968680839012812D00228E7
:1006900013D0032811D00968890700292DDA2168B1
:1006A00021F0030101432160FFF728FF814641F259
:1006B000883A0EE009688903EFE709688901ECE7E9
:1006C000FFF71CFFA0EB0901514502D90320BDE84B
:1006D000F0872068696800F00C00B0EB810FEFD163
:1006E000D8F80010404601F00F01B14207D9077059
:1006F000006800F00F00B04201D00120E7E7287841
:10070000400705D52068E96820F4E05008432060E0
:100710002878000706D52068296920F4604040EA5F
:10072000C100206000F038F82168084AC1F30311C5
:10073000515CC8400649086006480068FFF706FF9C
:100740000020C4E7003C024008380240AE12000816
:10075000140000200C0000200448054900680968C6
:10076000044AC1F38221515CC84070471400002044
:1007700008380240BE1200080448054900680968AC
:10078000044AC1F34231515CC84070471400002054
:1007900008380240BE120008154810B5006810F075
:1007A0000C02144813D04110042A0FD0082A0ED18D
:1007B0000F4C241F2268236802F03F025B0207D51A
:1007C0002068C0F38810A0FB010106E0084610BDB8
:1007D0002168C1F38811A1FB00010023FFF702FD8E
:1007E0002168C1F30141491C4900B0FBF1F010BD83
:1007F000083802400024F4002DE9F84F04006ED0C0
:100800002078DFF83C93C007A9F104054AD009F12C
:1008100004000168C1F38101012908D00068C0F318
:10082000810002280AD1D9F80000400206D52868C4
:10083000800337D560680028E1D033E06068B0F508
:10084000803F10D0B0F5A02F286810D020F4803061
:100850002860286820F4802028606068A8B1FFF72D
:100860004DFE06460DE0286840F48030F4E740F481
:1008700080202860F7E700BFFFF740FE801B642858
:1008800073D828688003F7D50CE0FFF737FE0646DB
:1008900005E000BFFFF732FE801B6428F0D828680F
:1008A0008003F7D42078DFF89C8280074FF0000A9D
:1008B0003ED5A348001D016811F00C0F08D0006858
:1008C000C0F3810002280BD1D9F80000400207D400
:1008D0002868800716D5E068012800D112E02BE1D6
:1008E000E068B8B10120C8F80000FFF707FE06462F
:1008F00005E000BFFFF702FE801B0228C0D8286871
:100900008007F7D52868216920F0F80040EAC10087
:1009100028600DE0C8F800A0FFF7F0FD064604E0EF
:10092000FFF7ECFD801B02281FD828688007F7D44A
:100930002078000722D5824E83486169703671B1F4
:1009400001210160FFF7DAFD074604E0FFF7D6FD5D
:10095000C01B022809D830688007F7D50EE0C0F820
:1009600000A0FFF7CBFD074605E082E0FFF7C6FDDC
:10097000C01B02287DD830688007F7D42078400754
:1009800068D5DFF8BCB100270BF13C0BDBF80000A9
:10099000C0000BD4DBF8001041F08051CBF8001000
:1009A000DBF80000012700F080500090674E3068AF
:1009B000C00510D4306840F480703060FFF79EFDB1
:1009C000009005E0FFF79AFD0099401A022850D8E0
:1009D0003068C005F6D55A4EA0686C3601280FD095
:1009E0000528306810D020F001003060306820F019
:1009F00004003060A068B8B1FFF780FD00900FE000
:100A0000306840F00100F4E740F004003060F7E7A0
:100A1000FFF774FD0099411A41F28830814266D88F
:100A200030688007F4D50EE0FFF768FD009007E01E
:100A3000FFF764FD0099411A41F28830814256D88F
:100A400030688007F4D42FB1DBF8001021F080511A
:100A5000CBF80010A069C8B33949091D0968C1F372
:100A6000810102294AD00228504607D0C8F8600008
:100A700000E03CE0FFF742FD04463BE04746C8F893
:100A80006000FFF73BFD064605E000BFFFF736FDBF
:100A9000801B02282BD828688001F7D4D4E90701ED
:100AA0000843A16A2A4A490802EB0141626A41EA05
:100AB0008211084394F82C1040EA0161C9F8001033
:100AC00001203866FFF71AFD044606E036E000BF55
:100AD000FFF714FD001B022809D828688001F7D50C
:100AE0002CE000BFFFF70AFD001B022802D90320FB
:100AF000BDE8F88F28688001F4D41FE00128F7D002
:100B0000D9F80000E26900F48001914214D1226A10
:100B100000F03F0191420FD147F6C071626A014077
:100B2000914209D1A26A00F44031914204D1E16AB4
:100B300000F07060884201D00120D9E70020D7E79B
:100B40000438024000004742800E474200700040D7
:100B50000000FFFF10B5401EB0F1807F01D30120DF
:100B600010BD4FF0E02460610F21601700F073FBAF
:100B70000020A06107202061002010BD70B5040096
:100B800004D094F83900002510B106E0012070BDB2
:100B900084F83850204600F023F8242084F83900E7
:100BA0002068C16821F40051C160204600F0BEFAFF
:100BB0002068016921F4904101612068416921F0B8
:100BC0002A0141612068C16841F40051C160E563B8
:100BD000202084F8390084F83A00002070BD00001D
:100BE000F0B587B0044614216846FFF733FB2C4B61
:100BF000216800222B480224032599422CD129493F
:100C000010310A6842F480120A60096801F4801108
:100C10000591016841F004010160016801F00401DF
:100C20000591016841F0080101600068012600F0AB
:100C30000800059098148DE851000827CDE9035766
:100C400069461948FFF76AFB04208DE85100CDE999
:100C50000357694615481EE0154B99421DD11149AD
:100C600014310B6843F010030B60096801F01001A8
:100C70000591016841F0010101600068029200F0F5
:100C8000010005904FF4C060CDE900040720CDE9D4
:100C9000035069460748FFF741FB07B0F0BD00006D
:100CA000005000403038024000080240000C024072
:100CB0000010014000000240FEE70000074910B5A7
:100CC000054808600846FFF704FB002803D0BDE88C
:100CD0001040FFF7FDBA10BD0030024000000020B8
:100CE0002DE9F04F87B014216846FFF7B3FABE48EC
:100CF0000024016841F004010160016801F0040171
:100D00000591016841F020010160016801F02001B6
:100D10000591016841F080010160016801F08001E6
:100D20000591016841F001010160016801F00101D4
:100D30000591016841F002010160016801F00201C2
:100D40000591016841F040010160016801F0400136
:100D50000591016841F010010160016801F0100186
:100D60000591016841F0080101600068002200F06F
:100D70000800059016219D48FFF7BAFB002280214C
:100D80009B48FFF7B5FB00224FF440519948FFF70D
:100D9000AFFB00224FF4C0419748FFF7A9FB4FF685
:100DA0003F000225CDE900050320CDE90240934F25
:100DB0000C26694604963846FFF7B0FA4FF4607087
:100DC0000090CDE901540520CDE90340694638463D
:100DD000FFF7A4FA68020090CDE901544FF00E0825
:100DE000CDE9034869463846FFF798FA0320012702
:100DF000CDE90240CDE90075694604967B48FFF7CE
:100E00008DFA16200090CDE9017469467748039465
:100E1000FFF784FADFF8E89148F20700CDE900090E
:100E2000694602947248FFF779FA41F6580000903B
:100E3000CDE90154CDE9034869466D48FFF76EFAE4
:100E400080200090CDE90174694669480394FFF75A
:100E500065FA2020CDE90009694602946348FFF74E
:100E60005DFA03200090CDE901544FF0090ACDE965
:100E7000034A69466348FFF751FA4FF00409CDE988
:100E8000009469465F480294FFF748FA48F233102D
:100E9000CDE900050320CDE9024069460496564895
:100EA000FFF73CFA4FF68370CDE900050320CDE94A
:100EB0000240694604965448FFF730FA4FF47060D8
:100EC0000090CDE90154CDE9034869464D48FFF74C
:100ED00025FA4FF450400090CDE90154CDE9034686
:100EE00069464848FFF71AFA2803CDE90004694625
:100EF00044480294FFF712FA4CF20370CDE9000562
:100F00000320CDE90240694604963A48FFF706FA05
:100F1000A802CDE90004694636480294FFF7FEF9BD
:100F2000B0020090CDE90174694632480394FFF79E
:100F3000F5F94FF40C600090CDE90154CDE9034878
:100F400069462D48FFF7EAF94FF498600090CDE923
:100F50000154CDE9034869462448FFF7DFF9280228
:100F60004FF0120BCDE9000BCDE902746946CDF8C4
:100F700010901E48FFF7D2F9E801CDE9000BCDE94A
:100F800002746946CDF810901948FFF7C7F9482058
:100F90000090CDE90154CDE9034869461548FFF7B3
:100FA000BDF94FF4A0500090CDE90154CDE9034ABA
:100FB00069461148FFF7B2F9F0020090CDE90174DB
:100FC00069460D480394FFF7A9F96020CDE90005B3
:100FD0000320CDE90240694604960A48FFF79EF9CE
:100FE00007B0BDE8F08F0000303802400008024032
:100FF00000000240000C02400018024000140240B1
:101000000000121000040240001002400C4810B50D
:101010000A4901604FF4E1314160002181600C22F6
:10102000C160C0E904128161C161FFF7A7FD00281A
:1010300003D0BDE81040FFF74BB910BD0050004091
:10104000180000200C4810B50A4901604FF4E13146
:101050004160002181600C22C160C0E904128161FD
:10106000C161FFF78BFD002803D0BDE81040FFF7FA
:101070002FB910BD0010014058000020FEE7704756
:1010800070477047FFF740BA30B593B030216846DB
:10109000FFF7E0F814210CA8FFF7DCF81A48002548
:1010A000016841F080510160006800F080501190AB
:1010B0001648016821F4404141F480410160006814
:1010C000022400F44040119001200390102004906D
:1010D000009406940820CDE907505420CDE9090476
:1010E00007200B906846FFF787FB0CA90F2081E8CB
:1010F0003100E0020F904FF4A050109002210CA894
:10110000FFF790FA13B030BD403802400070004045
:101110000548016841F47001016003494FF0006027
:10112000803908607047000088ED00E02DE9F0414B
:10113000044600680169E26821F4405111430161ED
:101140002169A068E2690843616911430843216885
:10115000CA6849F20C639A430243CA602068416935
:10116000A26921F4407111434161E06919276425A6
:101170003226B0F5004F354A354920684FF0000857
:1011800006D0884201D0904236D1FFF7F5FA35E01B
:10119000884201D0904202D1FFF7EEFA01E0FFF75A
:1011A000DBFA61684A18A0FB070148EB0803FFF768
:1011B00019F80146B0FBF5F00201B1FBF5F06FF054
:1011C0001803584301EB800006EBC000B0FBF5F0BC
:1011D00000F0F80002EB4002B1FBF5F0584301EBE0
:1011E000800006EBC000B0FBF5F000F007002168BE
:1011F00010448860BDE8F081FFF7AEFA61688B0F9C
:101200008A00A0FB0701FEF7EDFF0146B0FBF5F0F9
:101210006FF01802504301EB800006EB0010B0FBAA
:10122000F5F000F0F002B1FBF5F002EB0012B1FBBB
:10123000F5F06FF01803584301EB800006EB001047
:10124000B0FBF5F000F00F00D1E700000014014002
:1012500000100140FEE70907090E002804DB00F139
:10126000E02080F80014704700F00F0000F1E0204B
:1012700080F8141D704702E008C8121F08C1002A38
:10128000FAD170477047002001E001C1121F002A07
:10129000FBD17047FFF740F9FFF7F6FEFFF720FD9F
:1012A000FFF7D0FEFFF70AFDFFF7B0FEFEE70000F4
:1012B0000000000000000102030406070809000006
:1012C0000000010203040000E812000800000020F2
:1012D0001800000076120008001300081800002013
:1012E00080040000861200080000000000000000DA
:1012F0000100000010000000000000000024F400C5
:04000005080001AD41
:00000001FF
