:020000040800F2
:1080000070040020C18100088F9000083B8D00089B
:108010008D900008DD820008C99200080000000071
:108020000000000000000000000000009390000825
:10803000DF82000800000000919000089590000881
:10804000DB810008DB810008DB810008DB810008A0
:10805000DB810008DB810008E1820008DB81000889
:10806000DB810008DB810008DB810008DB81000880
:10807000DB810008DB810008DB810008DB81000870
:10808000DB810008DB810008DB810008DB81000860
:10809000DB810008DB810008DB810008DB81000850
:1080A000DB810008DB810008DB810008DB81000840
:1080B000DB810008DB810008DB810008DB81000830
:1080C000DB810008DB810008DB810008DB81000820
:1080D000DB810008DB810008DB810008DB81000810
:1080E000DB810008DB810008DB810008DB81000800
:1080F000DB810008DB810008DB810008DB810008F0
:10810000DB810008DB810008DB810008DB810008DF
:10811000DB810008DB810008DB810008DB810008CF
:10812000DB810008DB810008DB810008DB810008BF
:10813000DB810008DB810008DB810008DB810008AF
:10814000DB810008DB810008DB810008DB8100089F
:10815000DB810008DB810008DB810008DB8100088F
:10816000DB810008DB810008DB810008DB8100087F
:10817000DB810008DB810008DB81000800000000D3
:10818000DB810008DB810008DB810008DB8100085F
:10819000DB810008DB810008DB810008DB8100084F
:1081A000DB810008DB810008DB810008DFF80CD0F0
:1081B00000F082F80048004719930008700400207E
:1081C0000648804706480047FEE7FEE7FEE7FEE771
:1081D000FEE7FEE7FEE7FEE7FEE7FEE72191000887
:1081E000AD8100082DE9F05F0546002092469B46D0
:1081F00088460646814640241BE0284641464746BD
:10820000224600F048F853465A46C01A914110D30E
:1082100011461846224600F02FF82D1A67EB010888
:108220004F4622460120002100F026F817EB0009F6
:108230004E41201EA4F10104DFDC484631462A46A7
:108240004346BDE8F09FD2B201E000F8012B491E81
:10825000FBD270470022F6E710B513460A460446E3
:108260001946FFF7F0FF204610BD421C10F8011B15
:108270000029FBD1801A7047202A04DB203A00FA3B
:1082800002F1002070479140C2F1200320FA03F36D
:10829000194390407047202A04DB203A21FA02F06B
:1082A0000021704721FA02F3D040C2F12002914030
:1082B0000843194670470000064C074D06E0E06889
:1082C00040F0010394E8070098471034AC42F6D31D
:1082D000FFF770FFC4930008E4930008FEE77047BF
:1082E000012000F01BB8000010B50A4C20684FF4C4
:1082F000C041C2B2084800F007F9206838B1002038
:1083000020606068002801D10120606010BD01205C
:10831000F6E700000000002000180240044910B5F4
:108320000A68024202D00860FFF7DEFF10BD0000BD
:10833000143C01402DE9F84F00224FF001080325BD
:108340004FF00F0E0B6808FA02F42340A3426ED1DF
:108350004E68012E05D0022E03D0112E01D0122E10
:1083600012D186684FEA420C05FA0CF7BE43CF687B
:1083700007FA0CF7374387604668A6430C79C4F3C5
:108380000014944034434460C668570005FA07FC63
:108390008C6826EA0C06BC403443C4604C68022C4E
:1083A00001D0122C13D1D40800EB8404A346D4F8D6
:1083B000209054074FEAD46A0EFA0AF629EA060911
:1083C0000E6906FA0AF646EA0906CBF82060046848
:1083D0000E7924EA0C0406F00306BE40264306602C
:1083E0004C68E4006FD53B4C266846F48046266016
:1083F000246822F0030604F480440094364C34448C
:10840000A446D4F808489607360F0EFA06F7BC4380
:10841000324FB84201D100272EE0314FB84201D18E
:10842000012729E02F4FB84202D1022724E04AE079
:108430002D4FB84201D103271EE02C4FB84201D185
:10844000042719E02A4FB84201D1052714E0294F2B
:10845000B84201D106270FE0274FB84201D10727C4
:108460000AE0264FB84201D1082705E0244FB84260
:1084700001D1092700E00A27B7402743CCF8087844
:10848000204E34684F689C43FF0300D51C43346082
:108490001C4E361D34684F689C43BF0300D51C43F7
:1084A0003460184E083634684F689C43FF0200D58C
:1084B0001C433460134E0C3634684F689C43BF0233
:1084C00000D51C433460521C102AFFF43BAFBDE8BA
:1084D000F88F0000443802400030014000000240A4
:1084E0000004024000080240000C0240001002405C
:1084F0000014024000180240001C0240002002400C
:1085000000240240003C01400AB181617047090427
:10851000FBE7000001488068704700002000002051
:108520000248816802781144816070472000002071
:108530000B4810B5016841F400710160016841F415
:1085400080610160016841F480710160032000F0E6
:1085500071F8002000F006F800F024F8002010BDAB
:10856000003C024070B50D4D04464FF47A712878F6
:10857000B1FBF0F00A490968B1FBF0F000F004FB30
:1085800048B9102C07D200222146501E00F032F8C4
:1085900000206C6070BD012070BD00002000002034
:1085A0002C0000200B4882B0016841F4804101603A
:1085B000006800F4804000900648001F016841F008
:1085C00080510160006800F080500090072002B0E8
:1085D00000F030B844380240002809DB00F01F02E8
:1085E000012191404009800000F1E020C0F8001115
:1085F00070470000F0B40E4B1B680C46C3F3022317
:10860000C3F10705042D00D90425191D072901D23E
:10861000002300E0DB1E012606FA05F1491E214079
:1086200099409E40761E16403143F0BC00F04DBE8E
:108630000CED00E0064900F0070208684FF6FF0362
:10864000184040EA0220034A1043086070470000C7
:108650000CED00E00000FA052DE9F0470E4605009C
:1086600065D0DFF81481D8F80000F7B200F00F00F1
:10867000B04207D288F80070D8F8000000F00F0070
:10868000B04254D128683D4C810712D5400703D52C
:10869000206840F4E05020602878000703D5206867
:1086A00040F4604020602068A96820F0F000084392
:1086B00020602878C0072DD0304968680839012823
:1086C00012D0022813D0032811D009688907002985
:1086D0002DDA216821F0030101432160FFF71AFF21
:1086E000814641F2883A0EE009688903EFE709689C
:1086F0008901ECE7FFF70EFFA0EB0901514502D914
:108700000320BDE8F0872068696800F00C00B0EB3A
:10871000810FEFD1D8F80010404601F00F01B142AF
:1087200007D90770006800F00F00B04201D00120A7
:10873000E7E72878400705D52068E96820F4E0508D
:10874000084320602878000706D52068296920F4AE
:10875000604040EAC100206000F038F82168084A13
:10876000C1F30311515CC84006490860064800681F
:10877000FFF7F8FE0020C4E7003C02400838024042
:10878000AC9300082C000020240000200448054978
:1087900000680968044AC1F38221515CC8407047EF
:1087A0002C00002008380240BC930008044805490A
:1087B00000680968044AC1F34231515CC8407047FF
:1087C0002C00002008380240BC930008154810B562
:1087D000006810F00C02144813D04110042A0FD086
:1087E000082A0ED10F4C241F2268236802F03F0292
:1087F0005B0207D52068C0F38810A0FB010106E0EA
:10880000084610BD2168C1F38811A1FB00010023B7
:10881000FFF7E8FC2168C1F30141491C4900B0FBA6
:10882000F1F010BD083802400024F4002DE9F84FA3
:1088300004006ED02078DFF83C93C007A9F104054E
:108840004AD009F104000168C1F38101012908D06F
:108850000068C0F3810002280AD1D9F80000400264
:1088600006D52868800337D560680028E1D033E05A
:108870006068B0F5803F10D0B0F5A02F286810D008
:1088800020F480302860286820F480202860606808
:10889000A8B1FFF73FFE06460DE0286840F480309F
:1088A000F4E740F480202860F7E700BFFFF732FECE
:1088B000801B642873D828688003F7D50CE0FFF785
:1088C00029FE064605E000BFFFF724FE801B642852
:1088D000F0D828688003F7D42078DFF89C828007DE
:1088E0004FF0000A3ED5A348001D016811F00C0F9F
:1088F00008D00068C0F3810002280BD1D9F800002D
:10890000400207D42868800716D5E068012800D106
:1089100012E02BE1E068B8B10120C8F80000FFF7D1
:10892000F9FD064605E000BFFFF7F4FD801B0228B5
:10893000C0D828688007F7D52868216920F0F8009A
:1089400040EAC10028600DE0C8F800A0FFF7E2FD92
:10895000064604E0FFF7DEFD801B02281FD82868CA
:108960008007F7D42078000722D5824E83486169BA
:10897000703671B101210160FFF7CCFD074604E0BC
:10898000FFF7C8FDC01B022809D830688007F7D55B
:108990000EE0C0F800A0FFF7BDFD074605E082E04D
:1089A000FFF7B8FDC01B02287DD830688007F7D4D8
:1089B0002078400768D5DFF8BCB100270BF13C0BED
:1089C000DBF80000C0000BD4DBF8001041F0805150
:1089D000CBF80010DBF80000012700F08050009079
:1089E000674E3068C00510D4306840F48070306045
:1089F000FFF790FD009005E0FFF78CFD0099401A0D
:108A0000022850D83068C005F6D55A4EA0686C369A
:108A100001280FD00528306810D020F00100306008
:108A2000306820F004003060A068B8B1FFF772FD34
:108A300000900FE0306840F00100F4E740F00400DF
:108A40003060F7E7FFF766FD0099411A41F2883080
:108A5000814266D830688007F4D50EE0FFF75AFDF2
:108A6000009007E0FFF756FD0099411A41F2883067
:108A7000814256D830688007F4D42FB1DBF800105B
:108A800021F08051CBF80010A069C8B33949091D05
:108A90000968C1F3810102294AD00228504607D053
:108AA000C8F8600000E03CE0FFF734FD04463BE01E
:108AB0004746C8F86000FFF72DFD064605E000BFF9
:108AC000FFF728FD801B02282BD828688001F7D4E7
:108AD000D4E907010843A16A2A4A490802EB014187
:108AE000626A41EA8211084394F82C1040EA01615D
:108AF000C9F8001001203866FFF70CFD044606E0B7
:108B000036E000BFFFF706FD001B022809D82868E1
:108B10008001F7D52CE000BFFFF7FCFC001B02280A
:108B200002D90320BDE8F88F28688001F4D41FE043
:108B30000128F7D0D9F80000E26900F480019142E1
:108B400014D1226A00F03F0191420FD147F6C07163
:108B5000626A0140914209D1A26A00F44031914217
:108B600004D1E16A00F07060884201D00120D9E7A9
:108B70000020D7E70438024000004742800E4742F9
:108B8000007000400000FFFF10B5401EB0F1807F74
:108B900001D3012010BD4FF0E02460610F21601768
:108BA00000F093FB0020A06107202061002010BD91
:108BB00070B5040004D094F83900002510B106E027
:108BC000012070BD84F83850204600F023F824209E
:108BD00084F839002068C16821F40051C160204642
:108BE00000F0ACFA2068016921F49041016120682D
:108BF000416921F02A0141612068C16841F40051B6
:108C0000C160E563202084F8390084F83A00002030
:108C100070BD000010B586B0044614216846FFF709
:108C200019FB14492068884221D1134800210268A9
:108C300042F010020260006800F0100005900E483B
:108C40001438026842F001020260006800F001007E
:108C500005904FF4C06000900220CDE9010103208F
:108C600003900720049069460448FFF763FB06B0B1
:108C700010BD0000001001404438024000000240D6
:108C80002DE9F843044690F839001F4616460D4674
:108C9000202850D1B5B1AEB194F8380001284AD09F
:108CA000012084F838004FF00008C4F83C802120EF
:108CB00084F83900FFF72EFCA6848146E68484F808
:108CC000388026E00120BDE8F883E08C401EE08477
:108CD000A0684B46B0F5805F4FF000024FF0800176
:108CE0002046009703D000F0BDFAE8B90DE000F08F
:108CF000B9FAC8B928882168C0F30800486020691B
:108D000008B16D1C05E0AD1C03E0216815F8010BEE
:108D10004860E08C0028D8D14B46002240212046F4
:108D2000009700F09FFA08B10320CCE7202084F8D8
:108D300039000020C7E70220C5E7FEE72DE9F04F24
:108D400087B014216846FFF785FAC64800240168F9
:108D500041F004010160016801F00401059101681E
:108D600041F020010160016801F0200105910168D6
:108D700041F080010160016801F080010591016806
:108D800041F001010160016801F0010105910168F4
:108D900041F002010160016801F0020105910168E2
:108DA00041F040010160016801F040010591016856
:108DB00041F010010160016801F0100105910168A6
:108DC00041F0080101600068002200F008000590F1
:108DD0001621A548FFF798FB00228021A348FFF742
:108DE00093FB00224FF44051A148FFF78DFB002276
:108DF0004FF4C0419F48FFF787FB4FF63F00022525
:108E0000CDE9000502AA03260C27DFF86C9282E860
:108E1000D00069464846FFF78DFA4FF46070009025
:108E2000CDE901540520CDE9034069464846FFF7E6
:108E300081FA68020090CDE901544FF00E08CDE9A7
:108E4000034869464846FFF775FA0120CDE9000559
:108E500002AA694682E8D0008348FFF76BFA162021
:108E600000900120CDE9010469467F480394FFF793
:108E700061FA012000908148CDE9010469467B48F0
:108E8000FFF758FADFF8F89148F20600CDE900093B
:108E9000694602947548FFF74DFA41F65800009074
:108EA000CDE90154CDE9034869467048FFF742FA1D
:108EB000802000900120CDE9010469466B480394AD
:108EC000FFF738FA2020CDE9000969460294664888
:108ED000FFF730FA0096CDE901544FF0090ACDE9C9
:108EE000034A69466748FFF725FA4FF00409CDE9C0
:108EF0000094694663480294FFF71CFA48F2331065
:108F0000CDE9000502AA694682E8D0005948FFF77A
:108F100011FA4FF68370CDE9000502AA694682E88E
:108F2000D0005948FFF706FA4FF470600090CDE981
:108F30000154CDE9034869465248FFF7FBF94FF465
:108F400050400090CDE90154CDE9034769464D48B2
:108F5000FFF7F0F92803CDE9000469464948029477
:108F6000FFF7E8F94CF20370CDE9000502AA694663
:108F700082E8D0003E48FFF7DDF9A802CDE9000401
:108F800069463B480294FFF7D5F930030090012071
:108F9000CDE90104694636480394FFF7CBF94FF455
:108FA0000C600090CDE90154CDE903486946314891
:108FB000FFF7C0F94FF498600090CDE90154CDE976
:108FC000034869462848FFF7B5F928024FF0120B0D
:108FD000CDE9000B02AA012082E81102694622486D
:108FE000FFF7A8F9E801CDE9000B02AA012082E809
:108FF000110269461D48FFF79DF948200090CDE910
:109000000154CDE9034869461948FFF793F94FF435
:10901000A0500090CDE90154CDE9034A69461548B6
:10902000FFF788F9700300900120CDE9010469463B
:1090300010480394FFF77EF96020CDE9000502AAED
:10904000694682E8D0000F48FFF774F90022114604
:109050000620FFF7CFFA0620FFF7BEFA07B0BDE8FB
:10906000F08F00003038024000080240000002404B
:10907000000C0240001802400014024000001110D1
:10908000000012100004024000100240FEE770478A
:1090900070477047FFF744BA30B593B03021684647
:1090A000FFF7D8F814210CA8FFF7D4F81A480025C8
:1090B000016841F080510160006800F0805011901B
:1090C0001648016821F4404141F480410160006884
:1090D000022400F4404011900120039010200490DD
:1090E000009406940820CDE907503C20CDE90904FE
:1090F00007200B906846FFF799FB0CA90F2081E829
:109100003100E0020F904FF4A050109001210CA804
:10911000FFF7A2FA13B030BD4038024000700040A3
:109120000448016841F47001016002490248803935
:109130000860704788ED00E0008000082DE9F041EC
:10914000044600680169E26821F44051114301615D
:109150002169A068E26908436169114308432168F5
:10916000CA6849F20C639A430243CA6020684169A5
:10917000A26921F4407111434161E0691927642516
:109180003226B0F5004F354A354920684FF00008C7
:1091900006D0884201D0904236D1FFF707FB35E078
:1091A000884201D0904202D1FFF700FB01E0FFF7B7
:1091B000EDFA61684A18A0FB070148EB0803FFF7C6
:1091C00011F80146B0FBF5F00201B1FBF5F06FF0CC
:1091D0001803584301EB800006EBC000B0FBF5F02C
:1091E00000F0F80002EB4002B1FBF5F0584301EB50
:1091F000800006EBC000B0FBF5F000F0070021682E
:1092000010448860BDE8F081FFF7C0FA61688B0FF9
:109210008A00A0FB0701FEF7E5FF0146B0FBF5F071
:109220006FF01802504301EB800006EB0010B0FB1A
:10923000F5F000F0F002B1FBF5F002EB0012B1FB2B
:10924000F5F06FF01803584301EB800006EB0010B7
:10925000B0FBF5F000F00F00D1E700000014014072
:10926000001001402DE9F041984617460E4604468D
:10927000069D1DE0681C1BD02DB1FFF74BF9A0EB3C
:109280000800A84214D92068C16821F4D071C160D7
:109290002068416921F001014161202084F83900F2
:1092A00084F83A00002084F838000320BDE8F081FB
:1092B0002068006836EA000004D00020B842D9D007
:1092C0000020F3E70120F9E7FEE70907090E00286F
:1092D00004DB00F1E02080F80014704700F00F007C
:1092E00000F1E02080F8141D704702E008C8121F4A
:1092F00008C1002AFAD170477047002001E001C17F
:10930000121F002AFBD170474FF00061086880F3FC
:109310000888486800470000FFF70AF9FFF7BCFE1D
:10932000FFF70CFD1F481E49002401604FF4E13196
:10933000C0E901140C21C460C0E904418461C46126
:10934000FFF736FCFFF7E6F8174F0546002641F217
:1093500088384FF47A794FF0FF3A00BFFFF7DAF818
:10936000691C8842FAD978686D1C38B1B868401C0D
:10937000B8604045F2DBFFF7C7FFEFE7761CBC6043
:109380004E45EBD3084800260C30FEF76EFF064929
:1093900082B253460C310348FFF772FCDEE700004F
:1093A00000100140300000200000002000000000FC
:1093B0000000000001020304060708090000000085
:1093C00001020304E49300080000002030000000C4
:1093D000EA920008149400083000002040040000C5
:1093E000FA920008000000000000000000000000E9
:1093F00048656C6C6F2055736572204170700D0A62
:10940000000000000100000010000000000000004B
:049410000024F40040
:04000005080081ADC1
:00000001FF
