:020000040800F2
:1080000050040020C1810008D3900008478D00086B
:10801000D1900008018300080D93000800000000C3
:10802000000000000000000000000000D7900008E1
:108030000383000800000000D5900008D9900008D4
:10804000DB810008DB810008DB810008DB810008A0
:10805000DB810008DB81000805830008DB81000864
:10806000DB810008DB810008DB810008DB81000880
:10807000DB810008DB810008DB810008DB81000870
:10808000DB810008DB810008DB810008DB81000860
:10809000DB810008DB810008DB810008DB81000850
:1080A000DB810008DB810008DB810008DB81000840
:1080B000DB810008DB810008DB810008DB81000830
:1080C000DB810008DB810008DB810008DB81000820
:1080D000DB810008DB810008DB810008DB81000810
:1080E000DB810008DB810008DB810008DB81000800
:1080F000DB810008DB810008DB810008DB810008F0
:10810000DB810008DB810008DB810008DB810008DF
:10811000DB810008DB810008DB810008DB810008CF
:10812000DB810008DB810008DB810008DB810008BF
:10813000DB810008DB810008DB810008DB810008AF
:10814000DB810008DB810008DB810008DB8100089F
:10815000DB810008DB810008DB810008DB8100088F
:10816000DB810008DB810008DB810008DB8100087F
:10817000DB810008DB810008DB81000800000000D3
:10818000DB810008DB810008DB810008DB8100085F
:10819000DB810008DB810008DB810008DB8100084F
:1081A000DB810008DB810008DB810008DFF80CD0F0
:1081B00000F094F8004800474D9300085004002058
:1081C0000648804706480047FEE7FEE7FEE7FEE771
:1081D000FEE7FEE7FEE7FEE7FEE7FEE76591000843
:1081E000AD8100082DE9F05F0546002092469B46D0
:1081F00088460646814640241BE0284641464746BD
:10820000224600F05AF853465A46C01A914110D3FC
:1082100011461846224600F041F82D1A67EB010876
:108220004F4622460120002100F038F817EB0009E4
:108230004E41201EA4F10104DFDC484631462A46A7
:108240004346BDE8F09F40EA01039B0703D009E0E5
:1082500008C9121F08C0042AFAD203E011F8013B32
:1082600000F8013B521EF9D27047D2B201E000F88B
:10827000012B491EFBD270470022F6E710B51346CA
:108280000A4604461946FFF7F0FF204610BD421C7F
:1082900010F8011B0029FBD1801A7047202A04DB4B
:1082A000203A00FA02F1002070479140C2F1200309
:1082B00020FA03F3194390407047202A04DB203A48
:1082C00021FA02F00021704721FA02F3D040C2F1F6
:1082D000200291400843194670470000064C074DA4
:1082E00006E0E06840F0010394E807009847103486
:1082F000AC42F6D3FFF75EFFC8930008E89300088E
:10830000FEE77047012000F009B870474FF4804144
:10831000014800F0F9B8000000180240044910B507
:108320000A68024202D00860FFF7F0FF10BD0000AB
:10833000143C01402DE9F84F00224FF001080325BD
:108340004FF00F0E0B6808FA02F42340A3426ED1DF
:108350004E68012E05D0022E03D0112E01D0122E10
:1083600012D186684FEA420C05FA0CF7BE43CF687B
:1083700007FA0CF7374387604668A6430C79C4F3C5
:108380000014944034434460C668570005FA07FC63
:108390008C6826EA0C06BC403443C4604C68022C4E
:1083A00001D0122C13D1D40800EB8404A346D4F8D6
:1083B000209054074FEAD46A0EFA0AF629EA060911
:1083C0000E6906FA0AF646EA0906CBF82060046848
:1083D0000E7924EA0C0406F00306BE40264306602C
:1083E0004C68E4006FD53B4C266846F48046266016
:1083F000246822F0030604F480440094364C34448C
:10840000A446D4F808489607360F0EFA06F7BC4380
:10841000324FB84201D100272EE0314FB84201D18E
:10842000012729E02F4FB84202D1022724E04AE079
:108430002D4FB84201D103271EE02C4FB84201D185
:10844000042719E02A4FB84201D1052714E0294F2B
:10845000B84201D106270FE0274FB84201D10727C4
:108460000AE0264FB84201D1082705E0244FB84260
:1084700001D1092700E00A27B7402743CCF8087844
:10848000204E34684F689C43FF0300D51C43346082
:108490001C4E361D34684F689C43BF0300D51C43F7
:1084A0003460184E083634684F689C43FF0200D58C
:1084B0001C433460134E0C3634684F689C43BF0233
:1084C00000D51C433460521C102AFFF43BAFBDE8BA
:1084D000F88F0000443802400030014000000240A4
:1084E0000004024000080240000C0240001002405C
:1084F0000014024000180240001C0240002002400C
:1085000000240240003C0140426931EA020200D1ED
:108510000904816170470AB1816170470904FBE772
:108520000148806870470000000000200248816810
:108530000278114481607047000000200B4810B59C
:10854000016841F400710160016841F480610160DB
:10855000016841F480710160032000F071F800208F
:1085600000F006F800F024F8002010BD003C0240A6
:1085700070B50D4D04464FF47A712878B1FBF0F0D8
:108580000A490968B1FBF0F000F004FB48B9102C6F
:1085900007D200222146501E00F032F800206C6005
:1085A00070BD012070BD0000000000200C00002004
:1085B0000B4882B0016841F480410160006800F41A
:1085C000804000900648001F016841F08051016022
:1085D000006800F080500090072002B000F030B832
:1085E00044380240002809DB00F01F0201219140BD
:1085F0004009800000F1E020C0F800117047000041
:10860000F0B40E4B1B680C46C3F30223C3F10705FD
:10861000042D00D90425191D072901D2002300E0EB
:10862000DB1E012606FA05F1491E214099409E40B5
:10863000761E16403143F0BC00F069BE0CED00E040
:10864000064900F0070208684FF6FF03184040EAA9
:108650000220034A10430860704700000CED00E060
:108660000000FA052DE9F0470E46050065D0DFF859
:108670001481D8F80000F7B200F00F00B04207D222
:1086800088F80070D8F8000000F00F00B04254D114
:1086900028683D4C810712D5400703D5206840F477
:1086A000E05020602878000703D5206840F460403F
:1086B00020602068A96820F0F00008432060287836
:1086C000C0072DD0304968680839012812D0022827
:1086D00013D0032811D00968890700292DDA2168F1
:1086E00021F0030101432160FFF71AFF814641F2A7
:1086F000883A0EE009688903EFE709688901ECE729
:10870000FFF70EFFA0EB0901514502D90320BDE898
:10871000F0872068696800F00C00B0EB810FEFD1A2
:10872000D8F80010404601F00F01B14207D9077098
:10873000006800F00F00B04201D00120E7E7287880
:10874000400705D52068E96820F4E0500843206020
:108750002878000706D52068296920F4604040EA9F
:10876000C100206000F038F82168084AC1F3031105
:10877000515CC8400649086006480068FFF7F8FEEB
:108780000020C4E7003C024008380240B0930008D3
:108790000C00002004000020044805490068096816
:1087A000044AC1F38221515CC84070470C0000208C
:1087B00008380240C0930008044805490068096869
:1087C000044AC1F34231515CC84070470C0000209C
:1087D00008380240C0930008154810B5006810F032
:1087E0000C02144813D04110042A0FD0082A0ED1CD
:1087F0000F4C241F2268236802F03F025B0207D55A
:108800002068C0F38810A0FB010106E0084610BDF7
:108810002168C1F38811A1FB00010023FFF7E2FCEE
:108820002168C1F30141491C4900B0FBF1F010BDC2
:10883000083802400024F4002DE9F84F04006ED0FF
:108840002078DFF83C93C007A9F104054AD009F16C
:1088500004000168C1F38101012908D00068C0F358
:10886000810002280AD1D9F80000400206D5286804
:10887000800337D560680028E1D033E06068B0F548
:10888000803F10D0B0F5A02F286810D020F48030A1
:108890002860286820F4802028606068A8B1FFF76D
:1088A0003FFE06460DE0286840F48030F4E740F4CF
:1088B00080202860F7E700BFFFF732FE801B6428A6
:1088C00073D828688003F7D50CE0FFF729FE064629
:1088D00005E000BFFFF724FE801B6428F0D828685D
:1088E0008003F7D42078DFF89C8280074FF0000ADD
:1088F0003ED5A348001D016811F00C0F08D0006898
:10890000C0F3810002280BD1D9F80000400207D43F
:108910002868800716D5E068012800D112E02BE115
:10892000E068B8B10120C8F80000FFF7F9FD06467D
:1089300005E000BFFFF7F4FD801B0228C0D82868BF
:108940008007F7D52868216920F0F80040EAC100C7
:1089500028600DE0C8F800A0FFF7E2FD064604E03D
:10896000FFF7DEFD801B02281FD828688007F7D498
:108970002078000722D5824E83486169703671B134
:1089800001210160FFF7CCFD074604E0FFF7C8FDB9
:10899000C01B022809D830688007F7D50EE0C0F860
:1089A00000A0FFF7BDFD074605E082E0FFF7B8FD38
:1089B000C01B02287DD830688007F7D42078400794
:1089C00068D5DFF8BCB100270BF13C0BDBF80000E9
:1089D000C0000BD4DBF8001041F08051CBF8001040
:1089E000DBF80000012700F080500090674E3068EF
:1089F000C00510D4306840F480703060FFF790FDFF
:108A0000009005E0FFF78CFD0099401A022850D82D
:108A10003068C005F6D55A4EA0686C3601280FD0D4
:108A20000528306810D020F001003060306820F058
:108A300004003060A068B8B1FFF772FD00900FE04D
:108A4000306840F00100F4E740F004003060F7E7E0
:108A5000FFF766FD0099411A41F28830814266D8DD
:108A600030688007F4D50EE0FFF75AFD009007E06C
:108A7000FFF756FD0099411A41F28830814256D8DD
:108A800030688007F4D42FB1DBF8001021F080515A
:108A9000CBF80010A069C8B33949091D0968C1F3B2
:108AA000810102294AD00228504607D0C8F8600048
:108AB00000E03CE0FFF734FD04463BE04746C8F8E1
:108AC0006000FFF72DFD064605E000BFFFF728FD1B
:108AD000801B02282BD828688001F7D4D4E907012D
:108AE0000843A16A2A4A490802EB0141626A41EA45
:108AF0008211084394F82C1040EA0161C9F8001073
:108B000001203866FFF70CFD044606E036E000BFA2
:108B1000FFF706FD001B022809D828688001F7D559
:108B20002CE000BFFFF7FCFC001B022802D9032049
:108B3000BDE8F88F28688001F4D41FE00128F7D041
:108B4000D9F80000E26900F48001914214D1226A50
:108B500000F03F0191420FD147F6C071626A0140B7
:108B6000914209D1A26A00F44031914204D1E16AF4
:108B700000F07060884201D00120D9E70020D7E7DB
:108B80000438024000004742800E47420070004017
:108B90000000FFFF10B5401EB0F1807F01D301201F
:108BA00010BD4FF0E02460610F21601700F0AFFBB3
:108BB0000020A06107202061002010BD70B50400D6
:108BC00004D094F83900002510B106E0012070BDF2
:108BD00084F83850204600F023F8242084F8390027
:108BE0002068C16821F40051C160204600F0C8FA35
:108BF0002068016921F4904101612068416921F0F8
:108C00002A0141612068C16841F40051C160E563F7
:108C1000202084F8390084F83A00002070BD00005C
:108C200010B586B0044614216846FFF725FB1449A9
:108C30002068884221D113480021026842F01002C6
:108C40000260006800F0100005900E4814380268B9
:108C500042F001020260006800F0010005904FF44C
:108C6000C06000900220CDE901010320039007209D
:108C7000049069460448FFF75DFB06B010BD000094
:108C80000010014044380240000002402DE9F84342
:108C9000044690F839001F4616460D46202850D14C
:108CA000B5B1AEB194F8380001284AD0012084F85B
:108CB00038004FF00008C4F83C80212084F83900C7
:108CC000FFF72EFCA6848146E68484F8388026E0EF
:108CD0000120BDE8F883E08C401EE084A0684B468C
:108CE000B0F5805F4FF000024FF080012046009702
:108CF00003D000F0D9FAE8B90DE000F0D5FAC8B910
:108D000028882168C0F308004860206908B16D1CFC
:108D100005E0AD1C03E0216815F8010B4860E08C0C
:108D20000028D8D14B46002240212046009700F071
:108D3000BBFA08B10320CCE7202084F839000020DA
:108D4000C7E70220C5E7FEE72DE9F04F87B0142101
:108D50006846FFF791FAC6480024016841F0040113
:108D60000160016801F004010591016841F02001F2
:108D70000160016801F020010591016841F0800166
:108D80000160016801F080010591016841F0010175
:108D90000160016801F001010591016841F00201E3
:108DA0000160016801F002010591016841F0400194
:108DB0000160016801F040010591016841F0100176
:108DC0000160016801F010010591016841F008019E
:108DD00001600068002200F0080005901621A548F7
:108DE000FFF799FB00228021A348FFF794FB0022A4
:108DF0004FF44051A148FFF78EFB00224FF4C041D1
:108E00009F48FFF788FB4FF63F000225CDE900059C
:108E100002AA03260C27DFF86C9282E8D00069468C
:108E20004846FFF787FA4FF460700090CDE901548F
:108E30000520CDE9034069464846FFF77BFA680202
:108E40000090CDE901544FF00E08CDE90348694682
:108E50004846FFF76FFA0120CDE9000502AA6946EE
:108E600082E8D0008348FFF765FA162000900120C1
:108E7000CDE9010469467F480394FFF75BFA0120BE
:108E800000908148CDE9010469467B48FFF752FA1A
:108E9000DFF8F89148F20600CDE90009694602942E
:108EA0007548FFF747FA41F658000090CDE90154A4
:108EB000CDE9034869467048FFF73CFA80200090EE
:108EC0000120CDE9010469466B480394FFF732FAAB
:108ED0002020CDE90009694602946648FFF72AFA86
:108EE0000096CDE901544FF0090ACDE9034A6946DD
:108EF0006748FFF71FFA4FF00409CDE9009469466F
:108F000063480294FFF716FA48F23310CDE90005E2
:108F100002AA694682E8D0005948FFF70BFA4FF6DB
:108F20008370CDE9000502AA694682E8D00059485D
:108F3000FFF700FA4FF470600090CDE90154CDE9DD
:108F4000034869465248FFF7F5F94FF45040009046
:108F5000CDE90154CDE9034769464D48FFF7EAF9E9
:108F60002803CDE90004694649480294FFF7E2F975
:108F70004CF20370CDE9000502AA694682E8D000F0
:108F80003E48FFF7D7F9A802CDE9000469463B48FF
:108F90000294FFF7CFF9300300900120CDE90104DE
:108FA000694636480394FFF7C5F94FF40C6000900A
:108FB000CDE90154CDE9034869463148FFF7BAF9D4
:108FC0004FF498600090CDE90154CDE9034869461B
:108FD0002848FFF7AFF928024FF0120BCDE9000B3C
:108FE00002AA012082E8110269462248FFF7A2F98D
:108FF000E801CDE9000B02AA012082E811026946CE
:109000001D48FFF797F948200090CDE90154CDE9BC
:10901000034869461948FFF78DF94FF4A0500090B6
:10902000CDE90154CDE9034A69461548FFF782F9B5
:10903000700300900120CDE90104694610480394B3
:10904000FFF778F96020CDE9000502AA694682E8B9
:10905000D0000F48FFF76EF9002211460620FFF7F7
:10906000CFFA0620FFF7BEFA07B0BDE8F08F000088
:10907000303802400008024000000240000C02406C
:1090800000180240001402400000111000001210ED
:1090900000040240001002400C4810B50A4901606B
:1090A0004FF4E1314160002181600C22C160C0E9D0
:1090B00004128161C161FFF781FD002803D0BDE882
:1090C0001040FFF722B910BD001001401000002031
:1090D000FEE7704770477047FFF728BA30B593B086
:1090E00030216846FFF7C8F814210CA8FFF7C4F830
:1090F0001A480025016841F080510160006800F0C5
:10910000805011901648016821F4404141F480419B
:1091100001600068022400F4404011900120039097
:1091200010200490009406940820CDE907503C20BC
:10913000CDE9090407200B906846FFF77DFB0CA9D9
:109140000F2081E83100E0020F904FF4A050109002
:1091500001210CA8FFF786FA13B030BD4038024059
:10916000007000400548016841F470010160034946
:109170004FF00060803908607047000088ED00E023
:109180002DE9F041044600680169E26821F440518C
:10919000114301612169A068E269084361691143D3
:1091A00008432168CA6849F20C639A430243CA60C3
:1091B00020684169A26921F4407111434161E0696D
:1091C000192764253226B0F5004F354A3549206805
:1091D0004FF0000806D0884201D0904236D1FFF708
:1091E000EBFA35E0884201D0904202D1FFF7E4FA71
:1091F00001E0FFF7D1FA61684A18A0FB070148EBCC
:109200000803FEF7EFFF0146B0FBF5F00201B1FBEA
:10921000F5F06FF01803584301EB800006EBC00037
:10922000B0FBF5F000F0F80002EB4002B1FBF5F006
:10923000584301EB800006EBC000B0FBF5F000F0F6
:109240000700216810448860BDE8F081FFF7A4FAA8
:1092500061688B0F8A00A0FB0701FEF7C3FF014680
:10926000B0FBF5F06FF01802504301EB800006EB05
:109270000010B0FBF5F000F0F002B1FBF5F002EBEE
:109280000012B1FBF5F06FF01803584301EB8000BA
:1092900006EB0010B0FBF5F000F00F00D1E7000086
:1092A00000140140001001402DE9F0419846174696
:1092B0000E460446069D1DE0681C1BD02DB1FFF72D
:1092C0002FF9A0EB0800A84214D92068C16821F446
:1092D000D071C1602068416921F001014161202005
:1092E00084F8390084F83A00002084F8380003201C
:1092F000BDE8F0812068006836EA000004D0002054
:10930000B842D9D00020F3E70120F9E7FEE70907CA
:10931000090E002804DB00F1E02080F800147047FB
:1093200000F00F0000F1E02080F8141D704702E00B
:1093300008C8121F08C1002AFAD1704770470020E0
:1093400001E001C1121F002AFBD1704786B0FFF770
:10935000F5F8FFF7C3FEFFF7F7FCFFF79DFE1822B5
:109360000CA16846FEF76FFF4FF0FF35FFF7D8F806
:1093700004466846FEF78BFF82B22B4669460B48CF
:10938000FFF784FC04F5FA74FFF7CAF8A042FBD992
:10939000ECE7000048656C6C6F204D616B65204206
:1093A0006F6F744C6F616465720D0A0010000020CD
:1093B0000000000000000000010203040607080985
:1093C0000000000001020304E893000800000020F0
:1093D000100000002E930008F893000810000020F1
:1093E000400400003E93000801000000100000004F
:0893F000000000000024F4005D
:04000005080081ADC1
:00000001FF
